:020000040800F2
:10000000480B0020A5020008F93A0008F13A000860
:10001000F53A0008BD050008F93C000800000000A2
:10002000000000000000000000000000893B000804
:10003000C105000800000000FD3A00088D3B0008E3
:10004000BF020008BF020008BF020008BF0200088C
:10005000BF020008BF020008BF020008BF0200087C
:10006000DD050008BF020008E5050008BF02000822
:10007000BF020008BF020008BF020008BF0200085C
:10008000BF020008BF020008BF020008BF0200084C
:10009000BF020008BF020008BF020008ED0500080B
:1000A000BF020008BF020008BF020008BF0200082C
:1000B000BF020008BF020008BF020008BF0200081C
:1000C000BF020008BF020008BF020008BF0200080C
:1000D000BF020008BF020008BF020008BF020008FC
:1000E000C5050008BF020008BF020008BF020008E3
:1000F000BF020008BF020008BF020008BF020008DC
:10010000BF020008BF020008BF020008BF020008CB
:10011000BF020008BF020008BF020008BF020008BB
:10012000BF020008BF020008BF020008BF020008AB
:10013000BF020008BF020008BF020008BF0200089B
:10014000BF020008BF020008BF020008BF0200088B
:10015000BF020008BF020008BF020008BF0200087B
:10016000BF020008BF020008BF020008BF0200086B
:10017000BF020008BF020008BF020008BF0200085B
:10018000BF020008BF020008BF020008BF0200084B
:10019000BF02000800000000BF020008BF02000804
:1001A000BF020008BF020008BF020008BF0200082B
:1001B000BF020008BF020008BF020008BF0200081B
:1001C000BF020008BF020008BF020008BF0200080B
:1001D000BF020008710C000800F002F800F052F8AD
:1001E00014A696E8000CB244B344DA4501D100F0FD
:1001F00049F8BAE80F000FA696E83000A5EB040511
:1002000004EB0607AAEB0704A7F101074FEA15154F
:100210004FEA3414A4F10104AC4201D300F032F8E7
:1002200013F0010F18BFFB1A43F0010300F001F8AF
:10023000DBE718473049000050490000103A24BF5E
:1002400078C878C1FAD8520724BF30C830C144BF3B
:1002500004680C6070470000704700000023002411
:1002600000250026103A28BF78C1FBD8520728BFC6
:1002700030C148BF0B6070471FB504F04EFC1FBD76
:1002800010B510BD00F058F81146FFF7F5FF03F068
:1002900037FD00F076F803B4FFF7F2FF03BC00F07F
:1002A0007DF800000948804709480047FEE7FEE75F
:1002B000FEE7FEE7FEE7FEE7FEE7FEE7FEE7FEE716
:1002C00004480549054A064B70470000E53C000814
:1002D000D901000848050020480B002048070020ED
:1002E000480700204FF0000200B51346944696469A
:1002F000203922BFA0E80C50A0E80C50B1F1200139
:10030000BFF4F7AF090728BFA0E80C5048BF0CC0E6
:100310005DF804EB890028BF40F8042B08BF704744
:1003200048BF20F8022B11F0804F18BF00F8012BB6
:100330007047704770477047754600F02BF8AE461F
:1003400005006946534620F00700854618B020B5E1
:10035000FFF7B6FFBDE820404FF000064FF0000762
:100360004FF000084FF0000BAC46ACE8C009ACE819
:10037000C009ACE8C009ACE8C00921F007018D460E
:10038000704710B50446AFF300802046BDE810402A
:10039000FFF781BF00487047200000200149182066
:1003A000ABBEFEE726000200704700000146806AEF
:1003B000C36DC26D13F0500F08D0D20648BF00F0D5
:1003C0003DBF406D426B0846104700BF42F40071CC
:1003D000C16501680B68CA681B0703D4910707D57C
:1003E00000F028BF12F4406FFAD1C9688904F7D42D
:1003F000C16D21F48071C165C16DC90448BF00F0B1
:1004000019BFC16D41F00101C16500F013BF0000CB
:10041000806AC16D41F04001C165016E41F0040187
:10042000016600F00BBF0000806A00F005BF00000D
:10043000B0B5016804468A688868C0074FF00000BC
:1004400031D012F0020218BFB0BD886800F00D0074
:1004500001281FD188684FF6C072C7F6FF7210409E
:10046000023088600320086001F0B6FC21688968CA
:10047000C90704BF0020B0BD054602E08068C00780
:1004800012D001F0A9FC411B20680329F6D3816832
:10049000C907F3D0E06D40F01000E065206E40F039
:1004A000010020660120B0BD0020B0BD70B582B053
:1004B00004460020019021688A68D20711D14FF6C6
:1004C000C076C7F6FF76886806F17F0210420BD02F
:1004D000E06D40F01000E065206E40F00100206605
:1004E000012002B070BD00BF88684FF4C162304087
:1004F00040F00100886040F20010C5F20000814227
:1005000008BF4FF40272B1F1A04F08BF4FF402725E
:100510001058000222D401F05FFC21680A68D2075B
:1005200018D1054603E000BF0868C00712D18868EB
:10053000C00704D18868304040F00100886001F0B5
:100540004BFC401B21680328EED30868C007EBD1A1
:10055000BEE700BF002002B070BD00BF40F218002F
:10056000C2F20000006842F663518009C0F23E51B9
:10057000A0FB0101880900EB40000C2101EB800089
:10058000019001980028C6D0019801380190019887
:100590000028C0D001980138019001980028BAD0F5
:1005A00001980138019001980028B4D001980138D1
:1005B000019001980028E7D1ADE70000FEE70000B8
:1005C0007047000080B54FF4806001F011FB4FF4DC
:1005D0000050BDE8804001F00BBB0000042001F09A
:1005E00007BB0000102001F003BB0000202001F039
:1005F000FFBA000040F20044C4F600042046202167
:1006000001F0DCFB4FF47A7001F056F9F6E70000D8
:10061000806AE02180F83110416B41F008014163AC
:1006200001F05EB970B5846AE168A9B1E06A40F290
:10063000256322680026C0F6000340F21165C0E978
:100640000B36238AC0F600051832456301F0C0F866
:1006500010B3E02025E000BF20680021C268B2F19D
:10066000FF3F0DDCC268B2F1FF3F09DCC268B2F1A6
:10067000FF3F05DCFC2903D0C2680431002AEDD419
:10068000C068B0F1FF3F0BDD2021204684F8311017
:10069000BDE8704001F02AB9E660268270BD00BF57
:1006A000A02084F83100606B40F0080120466163AF
:1006B000BDE8704001F014B9F0B581B0846A002043
:1006C000226800BFD168B1F1FF3F0DDCD168B1F104
:1006D000FF3F09DCD168B1F1FF3F05DCFC2803D006
:1006E000D16804300029EDD4D068B0F1FF3F25DD9A
:1006F000E168D1B1238AC3B103F10340D060E06A5D
:1007000040F2B96540F211660027C0F60005C0F658
:1007100000061832C0E90B57466301F059F808B3D8
:1007200008206063E02084F83100606B80B12046CF
:1007300001B0BDE8F04001F0D3B800BFA02084F8BC
:100740003100606B40F080006063606B0028EED188
:100750002021204684F8311001B0BDE8F04001F0BE
:10076000D3B800BFE760278201B0F0BD806A01F016
:1007700047B90000806A00218161016281832021E4
:1007800080F8321001F0A6B92DE9F0410446006866
:10079000C068002850D494F8310020284CD124207F
:1007A000154684F831000E4601F016FB804670783D
:1007B00032460021616048B121684FF6FF770B682F
:1007C000BB43177843EA0020384408605068411C56
:1007D00005D02168000E0B6860F319630B60507A36
:1007E00048B121684FF6FF774B68BB43177A43EA5D
:1007F000002038444860D07A48B121684FF6FF772E
:100800008B68BB43977A43EA002038448860D068FD
:10081000411C05D02168000E8B6860F319638B6062
:10082000507F116A40F00203032B01F4004107D10D
:1008300041F00C010BE000BF0120BDE8F08100BFDA
:10084000937F43F00203032B08BF41F00C0126689D
:100850003161917F20726172506A92F8281092F88B
:10086000293092F82A70084340EA032040EA074002
:10087000916940F00040002960601CBF107F5FEA72
:10088000006305D1202084F831000020BDE8F0810C
:1008900092F814C0C3B25FFA8CFE43EA0E2707F148
:1008A0000247012DF7600FD110F0030E36D00F462E
:1008B00037F8025B2668BEF1010FB56197611BD165
:1008C000013839462AE000BF106940F22567E06030
:1008D000E06A40F211650022C0F60007C0F600058C
:1008E000A4F810E0C0E90B7206F118024563BDE8F8
:1008F000F04100F06DBF00BF4D8826680F1DBEF1AE
:10090000020FB561976103D10238394606E000BF96
:100910008F88266806310338B7619161042B1DD397
:10092000083900BF31F8083F27680438BB610B461F
:1009300033F8027F936123689F610B4633F8047F8D
:10094000936123689F610B4633F8067F93612368A8
:100950009F6101F1080307069361E3D11369002B3E
:1009600018BF5FEA0C601BD12068C068B0F1FF3F80
:100970003FF788AF01F030FAA0EB0800B0F57A7FBE
:10098000F2D9606B40F080006063606B40F08000E3
:100990006063A02084F831000120BDE8F08100BF31
:1009A0001CF00305ACF1010112D01E4636F8020B13
:1009B0002768012DB8610846166114D05888276849
:1009C0001E1D022DB861166106D1ACF102000AE0CD
:1009D0001E46604607E000BF988827689E1DB861E4
:1009E000ACF103001661C9B20329BDD3A6F1080119
:1009F00031F8083F27680438BB610B4633F8027FA3
:100A0000136123689F610B4633F8047F13612368E9
:100A10009F610B4633F8067F136123689F6101F1E4
:100A2000080307061361E3D19EE700002DE9F04FAC
:100A300081B0044600680B9EDDF828B0C768002F1F
:100A400007D467682FB1076841B1C7F307279742FA
:100A500004D2012001B0BDE8F08F00BF80681BB157
:100A6000C0F307205845F4D394F831002028F0D182
:100A7000242017469A4684F83100894601F0ACF9E3
:100A80002268B9F1000F804612D051468FB13B4623
:100A900007F10140012ED0603AD113F0030075D068
:100AA000CC463CF8027B0128976173D1581E8DE03B
:100AB0005146002918BFBBF1000F17D15069C0057E
:100AC0003ED45069800542D45069400503D5606B1F
:100AD00040F001006063202084F83100606B002842
:100AE00018BF012001B0BDE8F08F00BF0BF103403B
:100AF000012ED06034D11BF0030055D00B4633F8E3
:100B0000027B0128976153D1ABF1010083E000BF64
:100B1000E06A40F2B967E1600021C0F6000740F2E8
:100B20001166C0F60006C0E90B7118324946A4F8F8
:100B300010B0466301B0BDE8F04F00F049BE00BF01
:100B4000606B40F00400606350698005BCD5606B49
:100B500040F00200606350694005B8D4BBE700BFB5
:100B6000E06A40F2B9670023C0F6000740F2116660
:100B7000E3602382C0F60006C0E90B7318325B46BF
:100B8000466301B0BDE8F04F00F022BECC461846E7
:100B90001CE000BFB9F802700228976110D109F17A
:100BA000040C981E12E000BF0B46584633E000BF0D
:100BB0004B880228936129D10B1DABF102002AE07A
:100BC000B9F8040009F1060C9061D81E042B0DD36E
:100BD000ACF1080333F8087F043897615F88050695
:100BE00097619F889761DF889761F3D12268D06809
:100BF000B0F1FF3F3FF75DAF01F0EEF8A0EB08006A
:100C00005146B0F57A7FF1D923E000BF88888B1D6B
:100C10009061ABF10300BBF1040F0DD3A3F1080108
:100C200031F8083F043893614B88070693618B883D
:100C30009361CB889361F3D12268D068B0F1FF3F14
:100C40003FF73CAF01F0C8F8A0EB0800B0F57A7FA1
:100C5000F2D9606B40F080006063606B40F0800010
:100C60006063A02084F83100012001B0BDE8F08F5E
:100C700070470000B0B582B004460020019094F89F
:100C80005800012802D1022002B0B0BD012084F832
:100C9000580020460D46FFF7CBFBE16D10B141F047
:100CA00010014BE041F2021291430231E1652168EB
:100CB0004FF6C073D1F808C0C3F6FF7303EA0C0304
:100CC00005F080454DF601622B44C0F2040203F1A9
:100CD00000438B608B68B3F1FF3F2BDC019B01333A
:100CE0000193019B93421DD88B68B3F1FF3F21DC38
:100CF000019B01330193019B934213D88B68B3F19D
:100D0000FF3F17DC019B01330193019B934209D8FC
:100D10008B68B3F1FF3F0DDC019B01330193019B15
:100D20009342D7D9E06D40F0100020F0020101207D
:100D300004E000BFE16D012262F30101E1650021E1
:100D400084F8581002B0B0BD90F85820012A04BFB2
:100D50000220704770B582B00022019200920268B2
:100D600040F2080CC5F2000CB2F1A04F0CF1F805EE
:100D700008D040F20043C5F200039A4234D10CF58A
:100D80009F6300E02B469B68946823435B072BD44A
:100D90004FF4E063D1F800E0AA4208BF4FF440737B
:100DA000B2F1A04F08BF4FF440735CF80340BEF1AE
:100DB000000F24F4604425D04D6890F8386042F468
:100DC000807245EA46352C4340F20015C5F2000515
:100DD000AA424CF8034027D1DCF80020DCF800419F
:100DE0002243D20748D129E0C16D41F02001C165FD
:100DF0000121002280F8582002B0BDE8704008466A
:100E0000704700BF42F4807140F20012C5F2000248
:100E100091424CF803401BD1DCF80010DCF80021B3
:100E20001143C90728D11DE0DCF80024DCF8004597
:100E3000DCF8005622432A43D2071DD15CF8032078
:100E400040F61F748968A243114341EA0E010EE087
:100E5000DCF80014DCF80025DCF8006611433143AF
:100E6000C90709D15CF8031040F61F7291434CF892
:100E700003100021BDE700BF0021BAE7F0B581B043
:100E80000022009290F85820012A03D1022108463E
:100E900001B0F0BD0123076880F85830BB685B07DC
:100EA00034D4D1E900351F26C5F3012407EB8404AF
:100EB000226B05F01F05AE40C3F38463B243AB4021
:100EC0001A432263BA68BB6802F0040203F0080305
:100ED000D21840F0BC800A6807F114030426C2F35C
:100EE0004064D1F808E006EAD25C53F82440C2F32B
:100EF00004550722AA40BEF1004F24EA02040BD198
:100F000043F80C401A6842F000430DE0C16D41F017
:100F10002001C165012167E10EFA05F2224343F881
:100F20000C201A6822F000437B61D1E90435FC688B
:100F3000042B5FD13A6E3A6E0B68C2F3846293FA67
:100F4000A3F6C3F3846C6FF3DF43B6FA86F5002B88
:100F50002C464FF6FF7E08BF6446A242C0F2070E41
:100F60000CD13A6E22F000423A660A6802EA0E0399
:100F7000C2F3846C92FAA2F2B2FA82F57A6E7A6EB9
:100F8000002BC2F384622C4608BF6446A2420CD1F7
:100F90007A6E22F000427A660A6802EA0E03C2F311
:100FA000846C92FAA2F2B2FA82F5BA6EBA6E002B93
:100FB000C2F384622C4608BF6446A2420CD1BA6ECA
:100FC00022F00042BA660A6802EA0E03C2F3846C99
:100FD00092FAA2F2B2FA82F5FA6EFA6E002BC2F31E
:100FE000846208BF6546AA4231D1FA6E22F00042FF
:100FF000FA662CE0062202EA940205FA02FC0E6868
:1010000007F1600555F823404FF20002C0F2FF32AD
:1010100006F0F846224046EA0C06324342F000420F
:1010200045F823200A698B6955F8226026F08076FE
:10103000334345F822300A690B7F55F82260012BB3
:1010400026F0007608BF06F1007645F82260BA68FF
:101050000D68D20750D1CA68D7F8B0602B466FF33D
:10106000DF4326EA030C4FF6FF7602F01804C0F2C5
:101070000706E64000242E40C4F27F0446EA0C0630
:10108000A242C7F8B06037D193B195FAA5F2B2FA8F
:1010900082F2013202F01E03092B02F01F0310D866
:1010A00001229A4003EB430342EA035315E000BFD9
:1010B000012202EB956202F01E030A2B02F01F03CD
:1010C000EED3012200269A4003EB4303CFF62066BD
:1010D00006EB03531A4342F00073C3F3406607EB79
:1010E00086068A687569C3F3045307249C40A543A8
:1010F0009A402A4372610D680021C8F208010D422E
:1011000071D040F2001CC5F2000C4FF4C16167457C
:1011100008BF4FF40271B7F1A04F08BF4FF402713E
:1011200051F80C400022CCF22132954204F0E07ECE
:1011300004D01022C9F2C002954241D1220252D4F9
:1011400040F20062C5F20002974202D0B7F1A04F10
:1011500049D15CF8012022F0E07242EA0E0242F42A
:1011600000024CF8012040F21801C2F200010968A7
:1011700042F663528909C0F23E52A1FB0212910964
:1011800001EB41010C2202EB81010091009951B366
:10119000009901390091009929B300990139009112
:1011A000009901B30099013900910099D9B10099D2
:1011B00001390091009900294FF00001E8D113E0B6
:1011C0000022CCF25272954214D10022B2EB1E6F73
:1011D00010D15CF8012022F0E07242EA0E0242F0E7
:1011E00080724CF801200021002280F85820084627
:1011F00001B0F0BD0021CCF684318D424FF00001EA
:1012000008BF14F48002EFD1B7F1A04F06D06745B4
:10121000EAD0674502D00CF5C06101E00CF5007121
:101220008A6822F0E07242EA0E0242F480028A608A
:10123000D9E70000704700007047000070470000C9
:1012400070B582B000210028019153D0C16D39B929
:10125000044600F021F920460021216684F8581048
:101260000268916889004FF6C071C5F6FF7102D51A
:1012700093680B4093609368DB002ED4936801F170
:101280008051194041F08051916040F21801C2F242
:101290000001096842F663538909C0F23E53A1FB7D
:1012A00003139909022303EB410101910199A1B1B3
:1012B000019901390191019979B10199013901919E
:1012C000019951B1019901390191019929B101990E
:1012D0000139019101990029EAD19168C9000DD421
:1012E000C16D012641F01001C165016E41F001019F
:1012F000016604E00126304602B070BD0026936806
:10130000C46D03F0040304F010041B19C36D77D1FE
:1013100023F481730233C3659368DB072AD140F25B
:10132000001442F48073C5F2000440F2080CA3429A
:10133000C5F2000C40F0A280DCF80040DCF800317F
:101340001C43E30716D10CF1F8034FF4E064D0F826
:1013500004E09A4208BF4FF44074B2F1A04F08BFB6
:101360004FF440745CF8043023F47C1343EA0E031A
:101370004CF80430437FC46BD0E9021544EA433390
:101380002B4390F824501943012D41EA054306D11F
:10139000816A0025CFF6FE7505EB41410B43C46A17
:1013A00024B1016B04F4787529430B43D16844F2EE
:1013B0000705CFF6F07529401943D1601169436BD9
:1013C00021F04061194311619168090743D490F8F5
:1013D0003810037F490041EA8331D36844F20205A3
:1013E000AB431943D160036914698BB144F4803174
:1013F0001161D2F8C01043F6FF75A9430B4310E00A
:1014000043F010020126C265304602B070BD00BF35
:1014100024F480311161D2F8C01043F6FF7321EA41
:101420000303C2F8C03090F84010136901290FD1AE
:1014300040F2FD7123EA010CD0E91135D0E91341E6
:1014400043EA0C032B432343194341F0010301E01A
:1014500023F0010313614169136B012923F00F038A
:1014600002D1016A01390B431363C26D012161F39B
:101470000102C265304602B070BD00BFDCF800E476
:10148000DCF80045DCF8003644EA0E041C43E307B0
:101490003FF459AF6EE700002DE9F0419CB00446DF
:1014A00000201B90CDE91900CDE9170002A80430F7
:1014B0005021FEF717FF2068B0F1A04F02D01CB0FA
:1014C000BDE8F0814FF4004002904FF0805013903F
:1014D00002A801F091FC002818BFFFF78BF841F239
:1014E0004C00C4F20200016817AD41F400510160E4
:1014F0000168032701F40051019101990168002658
:1015000041F001010160016801F0010101910199BF
:10151000016841F0020101600068294600F0020004
:10152000019001980E2017904FF09040189719964F
:1015300000F06AFB40F200404FF40068C4F600007F
:101540002946CDE91787199600F05EFB40F2AC35CD
:101550000820C2F20005C4F2020005214FF4007217
:10156000202385E843002846C5E90366C5E9052828
:10157000C5E9073600F0A0F8002818BFFFF73AF8D1
:101580006565AC621CB0BDE8F08100002DE9F0415A
:1015900040F200160368C5F200064FF4C167B3427B
:1015A00008BF4FF40277B3F1A04F08BF4FF40277A2
:1015B000BF599D686D0703D490F85850012D03D191
:1015C0000220BDE8F08100BF06F5A06407F01F0708
:1015D0000125A34280F8585018BF002F09D0052FCD
:1015E00007D0092F1FBF002180F858100120BDE847
:1015F000F0810D4690460446FEF758FF30B10020BA
:1016000084F858000120BDE8F08100BF2168E06D3A
:1016100040F601739843224600F58070B142E065C0
:1016200008D040F20050C5F20000814208D106F512
:10163000407001E04FF0A040884218BF002F03D156
:10164000D06D20F48010D065D06D40F2AD37C0046D
:101650004FF0000044BF106E20F006001066506D81
:1016600040F22946C0F60007C0F6000640F21144D9
:101670000023C0F60004C0E90B761C2744630F600A
:1016800082F858304B68144643F010034B60CB6827
:101690002A4643F00103CB604031434600F098F8FE
:1016A00021684FF6C0738A68C7F6FF731A40043288
:1016B0008A60BDE8F081000000284FF0010100F0D1
:1016C00085802DE9F04740F2000CC4F2020C03685B
:1016D0004FF6F8320CF5816ECBF6FD72734538BFCC
:1016E00002F580624CF6CD441A44CCF6CC44A2FB01
:1016F000042903F0FC02A2F10802A2FB04280CF565
:1017000080646FF00305D0E902A607693CBF00249E
:10171000C4F2020405EA9905C0E91045022480F8E4
:1017200025401C6847F6F07224EA020232434669FB
:101730003A4387693243C6693A43076A32433A43B8
:1017400042EA0A021A600CF50262734538BF0CF5D2
:101750000062AB180CF50862C264C8F3041201FA07
:1017600002F540F68401BAF5804FC4F202018364A9
:10177000056505D1002242601A600D6018E000BFC7
:101780004268D4B2013A032A4FF000021C600D6097
:101790000ED8631E01EB830747F87C2F03F01F026E
:1017A00001239340C1F8C030BC313A4602E000BF8B
:1017B00000210023C0E9152100210122C365C16376
:1017C00080F8252080F82410BDE8F04708467047CF
:1017D00090F824C0BCF1010F47D04FF0010C80F805
:1017E00024C090F825C0BCF1010F3BD12DE9F04198
:1017F0004FF0020C80F825C04FF0000CC0F83CC040
:10180000D0F800C000F14C0E9EE83040DCF80060DB
:10181000BEF1000F26F00106CCF8006065601CBF29
:10182000D0E916456560D0E91056012706F01F067D
:10183000846807FA06F6D0F830806E60CCF8043081
:101840000B46102C04BF13460A46CCF80830CCF8DF
:101850000C20DCF80010B8F1000F09D041F00E01A7
:101860000EE000BF002180F824100220704700BF66
:1018700021F00401CCF80010DCF8001041F00A015E
:10188000CCF80010806C0168C90303D5016841F4ED
:1018900080710160BEF1000F05D0DEF8000040F459
:1018A0008070CEF80000DCF8000040F00100CCF8B9
:1018B00000000020BDE8F081B0B5044600F08CFACD
:1018C000054640F21000C2F200004068611C18BFDB
:1018D000044400BF00F080FA401BA042FAD3B0BD20
:1018E000704700000122FEF74FBF00007047000064
:1018F00080B582B0DDF810C04FF0010ECDE900CE0A
:10190000FFF794F802B080BD7047000070B5D0F8C2
:1019100000C0DCF80C30002B1ED4D0F804E0BEF17F
:10192000000F19D090F83130202B15D1242380F8E6
:101930003130057A447AEB1EB3FA83F35B095B001E
:10194000012D08BF4FF40073032C07D0012C08BFF2
:1019500043F4807304E000BF012070BD43F0010335
:10196000DCF8105040F20336B5432B430025002924
:10197000CCF81030858318BF002A0DD1856105622F
:10198000202180F832100022CCF80CE0202180F8D1
:101990003110104670BD00BF1388002BEED0012C13
:1019A00004D04CBB002181610162E9E70022826121
:1019B0000262252280F83220826A40F26D7640F27F
:1019C000757540F21164C0F60006C0F60005C0F659
:1019D00000040CF11C0CC2E90B565463044610467B
:1019E0000A466146FFF7F4FE014620460A460029F2
:1019F000CCD1D0E900CEC6E7816125210262C0E7E3
:101A000070470000002804BF01207047B0B50446AD
:101A100090F8310028B9002084F83000204600F00A
:101A200039F8002020216060E060208284F83310C3
:101A3000C4E905002062A08384F8321000F0CCF9DC
:101A4000216805460A6942F480300861206800690F
:101A5000C00315D500F0C0F9401BB0F5FA7FF5D9E9
:101A6000606BA02140F080006063606B40F010006C
:101A70006063012084F83110002184F83010B0BD7B
:101A8000002020216063606384F83110002184F815
:101A90003010B0BD41F24801C4F20201006801F506
:101AA0006E72904218BF704780B582B008680022FD
:101AB00040F0100008600868002100F0100001905C
:101AC0000198652001F0CAF8652002B0BDE88040A9
:101AD00001F0B2B870470000F0B581B040F2E0010B
:101AE0002028C2F2000105D0B0F5806F14D101208A
:101AF00001E000BF002081F8550091F85420D0B2D9
:101B0000022805D0012825D10024012524E000BFAA
:101B10000125012420E000BF91F8542004283BD186
:101B2000012A39D840F23810C2F2000090F806328B
:101B3000013281F85420022B4FF0000248D0002BD4
:101B4000DBD1B0F80032512BD7D300F202230127AA
:101B500041E000BF0025002440F20046C4F6000624
:101B600006F5806738464FF480412A4600F02EF98A
:101B7000304680212A4600F029F938464FF40041CA
:101B8000224600F023F930460221224601B0BDE88A
:101B9000F04000F01BB900BF1028B0D1002AAED031
:101BA00040F23810C2F2000090F80672013A022F9B
:101BB0004FF0000381F8542012D0002F9FD1B0F8CD
:101BC0000072512F9BD300F2022201270BE000BFCD
:101BD00000F50073002780F806721A808DE700BFB9
:101BE00000F50072002780F80672138085E7000078
:101BF00040F21441C4F201010A68024214BF0860B5
:101C00007047FFF769BF00002DE9F04F83B00E6801
:101C1000002E00F0CF8000F1200241F2004C009233
:101C200000F13847C4F6000C06224FEAB72560459C
:101C300008BF0522052D38BF4FEAB722002500272F
:101C40004FF0000801920AE00E6808F1010836FA28
:101C500008F207F1020705F1040500F0AB8001224C
:101C600002FA08FE16EA0E09EED0D1F804C00322EB
:101C70000CF0030BABF1010602FA07F4012E6FEA38
:101C8000040A11D88468CE6804EA0A04BE403443CA
:101C90008460446824EA0E06CCF3001404FA08F4C5
:101CA0002643466006E000BFBBF1030F02D14FF0B0
:101CB000030B21E0C6688C6806EA0A06BC4026438E
:101CC000BBF1020FC66017D16FF00302009B02EA5E
:101CD000580605F01C020F2453F806C004FA02FE51
:101CE0000C692CEA0E0C04FA02F242EA0C029A5138
:101CF000D1F804C00CF0030B02680BFA07F302EAF8
:101D00000A021A431CF4403F02609DD041F2600376
:101D1000C4F202031A6840F2004E42F001021A6057
:101D20001A68C4F2010E02F001020292029A28F02F
:101D300003024FF6084C7244CFF6FF7C52F80C3089
:101D400005F00C060F24B440A343019C04FA06F6E8
:101D5000334342F80C30DEF808204B6842EA0906AB
:101D600040F20C4CDC0258BF22EA0906CEF80860AB
:101D7000C4F2010CDCF800209C0242EA090658BFBC
:101D800022EA0906CCF80060DEF804209C0342EA4F
:101D9000090658BF22EA0906CEF80460DEF80020E2
:101DA000DB0342EA090658BF22EA0906CEF80060C2
:101DB0004AE700BF03B0BDE8F08F0000426902EAC5
:101DC0000103914341EA0341816170471823002ACE
:101DD00008BF2823C150704740F24050C2F20000B3
:101DE0000068704790F8DD30022B03D14FF0020CF1
:101DF0006046704790F8DC304FF0020C012B01D1A7
:101E00006046704701237F2980F8DC3080F8DDC010
:101E100000F32C8001393F2900F28080DFE801F0D7
:101E2000204C7E467E7E7E3A7E7E7E7E7E7E7E520A
:101E30007E7E7E7E7E7E7E7E7E7E7E7E7E7E7E4000
:101E40007E7E7E7E7E7E7E7E7E7E7E7E7E7E7E7EB2
:101E50007E7E7E7E7E7E7E7E7E7E7E7E7E7E7E34EC
:101E60000168D1F8003462F3040330E0802939D0EE
:101E7000B1F5807F3CD0B1F5007F4FD10168D1F83A
:101E8000043462F31C6338E00168D1F8043462F36F
:101E90008A1332E00168D1F8003462F3964316E009
:101EA0000168D1F8043462F3040326E00168D1F834
:101EB000003462F310330AE00168D1F8003462F3B1
:101EC0008A1304E00168D1F8003462F31C63C1F89E
:101ED000003490F8DD104FF0010C07293FF490AF6B
:101EE00014E000BF0168D1F8043462F3103304E059
:101EF0000168D1F8043462F39643C1F8043490F8D1
:101F0000DD104FF0010C07293FF47AAF80F8DDC0F7
:101F10004FF0000C80F8DCC060467047072180F865
:101F2000DD10002180F8DC1090F8DD104FF0010C7E
:101F300007293FF465AFE9E790F8DD30022B03D1C4
:101F400002231846704700BF90F8DC30012B4FF099
:101F5000020301D118467047B0B5012480F8DC4077
:101F600080F8DD3003687F29D3F880C3D3F8FCE321
:101F700000F352804C1E3F2C00F21481DFE814F075
:101F80004000B8001201AC001201120112018800D9
:101F90001201120112011201120112011201C400F8
:101FA0001201120112011201120112011201120199
:101FB0001201120112011201120112011201940008
:101FC0001201120112011201120112011201120179
:101FD0001201120112011201120112011201120169
:101FE0001201120112011201120112011201120159
:101FF00012011201120112011201120112017000EC
:102000005488526864F3124CC3F8BC2390F8DD2066
:10201000072A00F0C180CFE0802900F08F80B1F561
:10202000807F00F0A380B1F5007F40F0BB80548832
:10203000D3F8F85364F3165E25F0F844C3F8F84378
:102040005268D3F8F84302F01F0244EA8262C3F8F0
:10205000F82390F8DD20072A00F09E80ACE000BF56
:102060005488D3F8F85364F30A2E25F4F844C3F8DF
:10207000F8435268D3F8F84302F01F0244EA822280
:10208000C3F8F82390F8DD20072A00F0858093E05C
:102090005488526864F35B6CC3F8C82390F8DD2061
:1020A000072A79D088E000BF5488D3F8F85364F346
:1020B000061E25F47874C3F8F8435268D3F8F84341
:1020C00002F01F0244EA4212C3F8F82390F8DD2020
:1020D000072A61D070E000BF5488526864F3985CAE
:1020E000C3F8C42390F8DD20072A55D064E000BF70
:1020F0005488526864F3D54CC3F8C02390F8DD20AF
:10210000072A49D058E000BF4FEADE05B2F802E0E6
:10211000D3F8F84365F3DF0E24F01F04C3F8F84347
:102120005268D3F8F84302F01F022243C3F8F823A1
:1021300090F8DD20072A2FD03EE000BF5488D3F866
:10214000F85364F30E3E25F4F814C3F8F8435268CC
:10215000D3F8F84302F01F0244EA0242C3F8F8231E
:1021600090F8DD20072A17D026E000BF5488D3F866
:10217000F85364F3124E25F07874C3F8F8435268AC
:10218000D3F8F84302F01F0244EA4252C3F8F8239E
:1021900090F8DD20072A0FD10123BDE8B040184692
:1021A000704700BF072280F8DD20002280F8DC2085
:1021B00090F8DD20072AEFD00F298CBFC3F8FCE38D
:1021C000C3F880C30121002380F8DD1080F8DC30E3
:1021D000BDE8B0401846704790F8DC20012A4FF067
:1021E000020221D0012380F8DC3080F8DD20026873
:1021F0004B1CD2F8CCC309D04CF00203C2F8CC334C
:10220000D2F8CC3323F00C03194301E02CF0020187
:10221000C2F8CC13D2F8CC1341F00101C2F8CC13B0
:102220000121002280F8DD101046704790F8DD3063
:10223000022B04BF0220704790F8DC30012B4FF0D6
:1022400002033DD070B580F8DD30D2E900C3D2E999
:1022500002E60CF4E0546FF35F23156923440EF497
:102260000074234405F480452B4406F400463344AF
:1022700056690025C0F2FF1505EA06469569334404
:1022800005F00076156A334405F08046D269334381
:10229000066802F0004206EBC1111A43D1F8B830CB
:1022A00042F20006C3F6004633401A43C1F8B82094
:1022B0000121002380F8DD1080F8DC30BDE870409B
:1022C00018467047002804BF0120704710B582B03F
:1022D0000446022084F8DD00207AC0074FF0000099
:1022E000C4E93800C4E93A00C4E93C00C4F8F80085
:1022F0001FD0206846F60001C4F2010188420CD1CB
:1023000041F26001C4F202010A6842F080620A6090
:10231000096801F08061019101990168D4E9042301
:1023200021F4704102F44042114403F4405211443C
:102330000160204600F03EF8207A800706D520682C
:10234000E1680268090A61F309220260012084F849
:10235000DD00002084F8DC00C4F8D800C4E90600E1
:10236000C4E90800A062C4E90C00C4E90E00C4E995
:102370001000C4E91300C4E91500C4E91700C4E95A
:102380001A00C4E91C00C4E91E00C4E92100C4E924
:102390002300C4E92500C4E92800C4E92A00C4E9EF
:1023A0002C00C4E92F00C4E93100C4E9330002B0B5
:1023B00010BD0000006846F60001C4F20101884229
:1023C00018BF704781B041F26000C4F2020001689A
:1023D00041F080610160006800F08060009000982A
:1023E00001B0704780B586B0006846F60002C4F2BE
:1023F000010200219042CDE90411CDE902110191C1
:1024000002D006B080BD00BF41F24C00C4F2020011
:10241000026842F002020260006800F002000090D0
:1024200000984FF4E04001900220CDE90201032022
:1024300004900D20059040F20040C4F6000001A970
:10244000FFF7E2FB06B080BD70B50D460446FFF70E
:10245000C3FC2168D1F88823D20314D455B30646AF
:10246000681C1CD1D1F88803C0030CD4D1F88803B0
:10247000C0035CBFD1F888035FEAC03003D4D1F851
:102480008803C003EED5012084F8DD00002084F825
:10249000DC0070BD2068D0F88803C003F3D4FFF7D8
:1024A0009BFC801BA842F5D9072084F8DD0003209F
:1024B00070BD00BFFFF790FC072084F8DD0003200B
:1024C00070BD000090F8DD30022B4FF0020331D0D8
:1024D00010B580F8DD300368062911D11968D2E9FA
:1024E00000CED2E9024221F01F0124F0180421435A
:1024F00011431960C3F814C0C3F818E014E000BF1A
:1025000003EBC111D1F88030D2E900ECD2E90242EC
:1025100023F01F0324F0180423431A43C1F880203A
:10252000C1F894E0C1F898C00121002380F8DD10C3
:10253000BDE810401846704790F8DDC0BCF1020FAE
:1025400004D14FF0020C6046704700BF90F8DCC029
:10255000BCF1010F4FF0020C02D16046704700BF82
:10256000B0B54FF0010E062980F8DCE080F8DDC040
:1025700016D1511E072900F293800FF20602DFE800
:1025800001F0053D8F298F8F8F6300BF19680268A6
:10259000D16190F8DD10072900F08C80A7E000BF22
:1025A000A2F1010CBCF1070F00F28A800FF20402C5
:1025B000DFE80CF0042C86188686865202681B68B9
:1025C00002EBC111C1F89C3090F8DD10072900F032
:1025D00081808CE019680268916290F8DD1007290B
:1025E00068D084E002681B6802EBC111C1F8A83012
:1025F00090F8DD1007296DD079E000BF19680268F6
:10260000516290F8DD10072954D070E00268D3E9D8
:10261000004E803202EBC11CC901CCF82440545852
:10262000BEF1000F24F4405454504FD0DCF8001099
:10263000BEF5405F41EA0E01CCF8001050D0BEF567
:10264000005F24D042E000BF19680268D16290F8B0
:10265000DD1007292ED04AE00268D3E900E502F137
:10266000800404EBC11CC901CCF82CE0625822F4B0
:102670004042625055B3DCF80010B5F5405F41EAC6
:102680008501CCF800102BD0B5F5005F1ED19968FC
:10269000CCF81C1090F8DD1007291BD027E000BFF4
:1026A000072180F8DD10002180F8DC1090F8DD10A3
:1026B00007291CD14FF0010CBDE8B04060467047BF
:1026C000072180F8DD10002180F8DC1090F8DD1083
:1026D00007290CD14FF0010CBDE8B04060467047AF
:1026E0009968CCF8281090F8DD100729F2D0012164
:1026F0004FF0000C80F8DD1080F8DCC0BDE8B04081
:102700006046704790F8DC20012A4FF002020BD09F
:1027100080F8DD200268136819431160012100224E
:1027200080F8DD1080F8DC2010467047B0B590F8D6
:10273000DD40022C04BF0220B0BD90F8DC404FF019
:10274000020C012C0DD0012580F8DC5080F8DDC092
:10275000044601F057F94FF0000C84F8DD5084F87E
:10276000DCC06046B0BD000090F8DC20012A4FF0CC
:1027700002020DD080F8DD200268D2F894331943AC
:10278000C2F894130121002280F8DD1080F8DC20CB
:102790001046704790F8DD30022B04BF02207047CE
:1027A00090F8DC30012B4FF0020300F049812DE955
:1027B000F04F8EB080F8DD300368062944D11F68E1
:1027C000D3F8A013566927F0E00726F0C005202EA5
:1027D00047EA050740F0948047F020074FF2FF36A4
:1027E000C3F2FF16D569374006F500662E40156A1C
:1027F000374325F06E46556A374325F06846956A9B
:10280000374325F06046D56A374347EA8507566B5C
:1028100027F000573743166B21F4803131431F6096
:10282000C3F8A013D2E90017D2E90265C0E9321754
:102830001169C0F8D060C0E93551D3F8841341F074
:102840000101C3F88413F2E003F18007CE01BD5902
:1028500007EBC11C25F07045BD51BD59674657F8BF
:10286000686F25F02005CDE90A67674657F864AF21
:102870000D97D3F8A07356690C97202E46EA0509E8
:102880004CD129F4D07505F12009D769D2E90EE4BD
:102890000197176A05940297D2E90967146C0397A8
:1028A000D76A07940997576B956D0497D2E911473A
:1028B000089547F48055B5F5F05F156D06952AF437
:1028C000807544EA050A02D1BEF1400F03D12AF413
:1028D000F05444EA070AD2F84CB0546D052900942C
:1028E00028D860A454F82140176B35460C9E01F19E
:1028F000010834402E4607FA08F545EA04081BE0B3
:102900009669042E00F0A680032E00F09B80022E14
:102910003FF462AF27F0E00760E700BF9569042D40
:1029200000F09C80032D00F09180022DA9D029F4A5
:10293000D079AAE7DDF830804FF2FF34C0F2FF14FF
:10294000019F09EA040504F500643C402C43029D04
:10295000DDF82490ADB22C434FF6BF75C0F2006590
:102960002E403443039E05F1006535402C434FF65D
:10297000BF7544EA0904CFF600652C40049D0A9E09
:10298000B5F1005F4FF6C075C7F6FF7505EA06059D
:10299000059E08BF04F5003406F03F063544079E47
:1029A000052945EA06054FF6FF76CFF602660EEAE0
:1029B000060747EA0407089C06F5802606EA04068F
:1029C00047EA0607069E47EA0607CCF800700B9F09
:1029D0003D602AF480470D9E47EA0B073760009F51
:1029E000CCF85470C3F8A083C1EBC107D2E90065ED
:1029F00000EB87073E6296687D62D568C7E90A6585
:102A000016693E6307D81DA757F82110D3F88473C1
:102A10003943C3F88413B9F1000F08D1DCF8001072
:102A2000D26D21F4007141EA4221CCF8001001215D
:102A3000002380F8DD1080F8DC300EB0BDE8F04FE8
:102A40001846704747F04007C8E600BF012565F308
:102A5000C8191AE747F08007C0E600BF022565F3F2
:102A6000C81912E7FFFFFDFFFFFFFBFFFFFFF7FFA6
:102A7000FFFFEFFFFFFFDFFFFFFFBFFF02000000D0
:102A8000040000000800000010000000200000000A
:102A90004000000090F8DD30022B04BF0220704798
:102AA00090F8DC30012B4FF002033ED02DE9F041CD
:102AB00080F8DD30D0F800C04FF6EF740CEBC11E8B
:102AC0005EF8EC3FCFF6EC7492E8600123400134ED
:102AD000D76804EA0514234326F44034234327F43B
:102AE000003495692343012D43EA080309D1D2E953
:102AF000042423F0060322F002021A43224342F088
:102B000001030629CEF8003007D809A252F8211097
:102B1000DCF884231143CCF884130121002380F8CE
:102B2000DD1080F8DC30BDE8F0411846704700BF8A
:102B30000200000004000000080000001000000077
:102B400020000000400000000100000040F21000E2
:102B500040F24051C2F20000C2F2000140680A682F
:102B6000104408607047000080B5032000F0A2F810
:102B7000002000F009F800281CBF012080BD00F0F3
:102B80002BF8002080BD0000B0B540F21005C2F265
:102B900000056968F1B1044640F21800C2F2000075
:102BA0004FF47A720068B2FBF1F1B0FBF1F000F083
:102BB00013FF01460F2C4FF001000AD8002918BF5F
:102BC000B0BD4FF0FF302146002200F047F8002052
:102BD0002C60B0BD0120B0BD82B041F25800C4F2FB
:102BE0000200816841F001018160816801F001010A
:102BF00001910199016841F080510160006800F085
:102C000080500090009802B000F0ECB8002848BF57
:102C1000704700F01F01012202FA01F11C2202EAB2
:102C2000D0004EF28012CEF200028150BFF34F8FDF
:102C3000BFF36F8F70470000002848BF704700F057
:102C40001F01012202FA01F11C2202EAD0004EF219
:102C50000012CEF2000281507047000010B54EF60F
:102C60000C5CCEF2000CDCF80030C3F3022E8EF0C8
:102C70000704042C28BF0424BEF103034FF0FF3ED9
:102C80000EFA04F438BF0023A14399400EFA03F36F
:102C90009A43114300F00F0200F160430901043A26
:102CA00003F564436244002848BF02F10C03197025
:102CB00010BD00004EF60C51CEF200010A684FF62E
:102CC000FF031A4060F30A2242F0806040F0FD707A
:102CD0000860704747F21401C4F2000151F8142C47
:102CE000B0F5007F3CD0002874D1C86E02F4C062F9
:102CF00020F48070B2F5806FC8662FD151F8140CA3
:102D0000012262F34A2041F8140C40F21800C2F28A
:102D100000000068322250434DF68362C4F21B3239
:102D2000A0FB0202900C00BF0A68520511D5421C9C
:102D30000FD00A6852050CD558B10A68520508D55B
:102D4000012806D00A68520503D50228A0F1040024
:102D5000EAD10868400544BF03207047002070474F
:102D6000C86E02F4C06240F48070B2F5806FC8662D
:102D7000F4D151F8140C012262F34A2041F8140CEA
:102D800040F21800C2F200000068322250434DF6B3
:102D90008362C4F21B32A0FB0202900C0A68520547
:102DA00011D5421C0FD00A6852050CD558B10A68DB
:102DB000520508D5012806D00A68520503D5022815
:102DC000A0F10400EAD10868400544BF0320704721
:102DD000C4E700BF022060F34A2241F8142C00200F
:102DE0007047000047F20800C4F20000016841F497
:102DF00080410160704700002DE9F04182B0044637
:102E0000807841F288060007C4F2020602D400204E
:102E10002FE000BF56F8300C5FEAC0080BD456F81C
:102E2000300C40F0805046F8300C56F8300C00F072
:102E300080500190019847F20007C4F200073868FB
:102E400040F480703860FEF7C7FF05463868C0055B
:102E500000F10C81FEF7C0FF401B0228F6D90320C9
:102E6000B8F1000F05D456F8301C21F0805146F817
:102E7000301C2168CA0717D18A071DD44A0723D4FA
:102E80000A0729D4CA062FD48A0635D44A063BD469
:102E90000A0641D4CA0547D48A034DD48A0553D4BF
:102EA0004A0559D467E000BF3268636822F0030224
:102EB0001A4332608A07E1D53268A36822F00C0217
:102EC0001A4332604A07DBD53268E36822F03002E9
:102ED0001A4332600A07D5D53268236922F0C0024E
:102EE0001A433260CA06CFD53268636922F4407251
:102EF0001A4332608A06C9D53268A36922F4406257
:102F00001A4332604A06C3D53268E36922F440525C
:102F10001A4332600A06BDD53268236A22F4404261
:102F20001A433260CA05B7D53268636A22F4403268
:102F30001A4332608A03B1D57269A36A22F0030290
:102F40001A4372618A05ABD53268E36A22F44022E3
:102F50001A4332604A050ED53268236B22F44012C0
:102F60001A43B3F5801F326005D156F87C2C42F429
:102F7000801246F87C2C0A050ED53268636B22F469
:102F800040021A43B3F5800F326005D156F87C2C0D
:102F900042F4801246F87C2CCA040ED53268A36B2A
:102FA00022F040721A43B3F1807F326005D156F8A7
:102FB0007C2C42F4801246F87C2C8A040ED53268B0
:102FC000E36B22F040621A43B3F1006F326005D127
:102FD00056F87C2C42F4801246F87C2C4A040ED51C
:102FE0003268236C22F040621A43B3F1006F326002
:102FF00005D156F87C2C42F4801246F87C2C0A0449
:103000000ED53268636C22F040521A43B3F1805FF0
:10301000326005D156F87C2C42F4803246F87C2C84
:10302000CA030ED53268A36C22F040421A43B3F1B2
:10303000804F326005D156F87C2C42F4803246F83D
:103040007C2C49030ED57169E26C21F440111143C7
:10305000B2F5001F716105D156F87C1C41F4801156
:1030600046F87C1C02B0BDE8F08100BFB06810F4E7
:10307000407010D0216D88420BD0B068B16820F448
:10308000407041F48031B160B16821F48031B160A9
:10309000B060C0070CD1B068216D20F440700843C7
:1030A000B0600020B8F1000F3FF5E3AEDBE600BFF3
:1030B000FEF792FE054641F2883700BFB0688007F0
:1030C000E9D4FEF789FE401BB842F7D9C7E60000F5
:1030D0002DE9F047002863D042F2000AC4F2020A48
:1030E0000446DAF800000D4600F00F0081420CD9CA
:1030F000DAF8000020F00F002843CAF80000DAF8E0
:10310000000000F00F00A8424AD1216841F20808EF
:10311000C807C4F2020803D1880740F1D080B5E0A7
:10312000606858F8082C022838D003283CD1920156
:1031300036D5D8F80420D8F8043042F20046C3F35C
:10314000031302F00302D8F804700133C0F2F4064E
:10315000032A04BF43F20066C0F26E16B6FBF3F218
:10316000D8F80430C7F306277A43C3F34163022734
:1031700007EB4303B2FBF3F24BF20043C0F2C4434C
:103180009A4259D9D8F8002012F0F00F49D0890797
:1031900052D5A16800294FD143E000BF910305D467
:1031A0000120BDE8F08700BF5105F9D5D8F800101F
:1031B00001F00C0104293FD0D8F8001001F00C01F7
:1031C000082939D0D8F8001001F00C010C2933D1AE
:1031D000D8F80410D8F8042042F20047C2F30312D2
:1031E00001F00301D8F804300132C0F2F4070329DA
:1031F00004BF43F20067C0F26E17B7FBF2F1D8F8D4
:103200000420C3F306235943C2F34162022303EBB4
:103210004202B1FBF2F14BF20042C0F2C4429142D1
:103220000AD9D8F80010082262F307114FF00109FB
:10323000C8F8001002E000BF4FF00009D8F80010F5
:1032400021F003010843C8F80000FEF7C5FD06465B
:1032500041F28837D8F80000616800F00C00B0EB4C
:10326000810F07D0FEF7B8FD801BB842F2D90320CA
:10327000BDE8F0872168880708D4B9F1000F1ED097
:10328000D8F8000020F0F00017E000BF480705D58F
:10329000D8F8000040F4E060C8F80000080706D540
:1032A000D8F80000072262F30D20C8F80000D8F813
:1032B0000000A26820F0F0001043C8F80000DAF81F
:1032C000000000F00F0085421BD2DAF8000020F069
:1032D0000F002843CAF80000FEF77EFD064641F2C3
:1032E000883700BFDAF8000000F00F00A84207D0CE
:1032F000FEF772FD801BB842F4D90320BDE8F087C9
:103300002168480707D5D8F80000E26820F4E0609B
:103310001043C8F80000080708D5D8F80000216954
:1033200020F4605040EAC100C8F80000D8F800005E
:1033300042F20041C0F2F40100F00C0004280846FB
:103340002DD0D8F8000000F00C00082843F20060EF
:10335000C0F26E1023D0D8F8002002F00C020C2A24
:103360001CD1D8F80420D8F8043002F00302C3F3CB
:103370000313D8F804700133032A08BF0146B1FBD8
:10338000F3F0D8F80410C7F30627C1F34161022215
:10339000784302EB4101B0FBF1F000E00020D8F8E7
:1033A000001044F63432C1F30311C0F60002515C40
:1033B00040F2180201F01F0120FA01F140F2100062
:1033C000C2F200000068C2F200021160BDE8F047DE
:1033D000FFF7DABB002804BF012070472DE9F04158
:1033E00082B00446007841F20006C007C4F202062B
:1033F0001ED1207880073DD42078000764D420783F
:10340000400700F187802078800600F1D980E569C7
:10341000002D00F04282B06800F00C000C2840F053
:103420003181012D40F08E81012002B0BDE8F08194
:10343000B06800F00C01F068082961D0032281F027
:103440000C0122EA00000844B0FA80F0400957D18C
:1034500061683068B1F5803F07D0B1F5A02F40F02A
:10346000E38040F480203060306840F48030306089
:10347000E4E000BFB068F16800F00C00042871D0EF
:1034800001F0030180F00C0081F002010844B0FA61
:1034900080F0400966D1E1683068002900F0E080E2
:1034A00040F480703060FEF797FC054630684005B8
:1034B00000F10A81FEF790FC401B0228F6D9032098
:1034C00002B0BDE8F08100BF6169D6F89400002920
:1034D00000F0948040F00100C6F89400FEF77CFCF8
:1034E000054600BFD6F8940080073FF588AFFEF789
:1034F00073FC401B0228F5D9032002B0BDE8F0811F
:10350000306880037FF575AF606800287FF471AF85
:103510003EE000BFB06D5FEAC00808D4B06D40F077
:103520008050B065B06D00F080500190019847F276
:103530000007C4F200073868C0052DD4386840F48D
:1035400080703860FEF748FC054600BF3868C0054B
:1035500022D4FEF741FC401B0228F7D9032002B019
:10356000BDE8F0813068400501D5E06880B1706841
:10357000216920F0FE4040EA0160706040F21000D6
:10358000C2F200000068FFF7FFFA00283FF434AFF2
:10359000012002B0BDE8F081A168D6F890000129B1
:1035A00008D0052940F0AE8040F00400C6F8900035
:1035B000D6F8900040F00100C6F89000AEE000BFE1
:1035C000A169D6F89800002900F0868040F001003B
:1035D000C6F89800FEF700FC054600BFD6F8980034
:1035E00080073FF514AFFEF7F7FB401B02284FF0B2
:1035F0000300F3D902B0BDE8F08100BF20F0010064
:10360000C6F89400FEF7E8FB054600BFD6F8940024
:1036100080077FF5F4AEFEF7DFFB401B0228F5D9EB
:10362000032002B0BDE8F08120F4803030603068C3
:10363000002920F48020306000F0BE80FEF7CCFB33
:10364000054600BF306880033FF5D3AEFEF7C4FBEC
:10365000401B6428F6D9032002B0BDE8F08100BF0A
:1036600020F480703060FEF7B7FB054630684005F7
:103670007FF5C2AEFEF7B0FB401B02284FF00300FF
:10368000F4D9B7E7306820F080703060FEF7A4FB13
:10369000022D05460CD100BF3068800140F1B88092
:1036A000FEF79AFB401B02284FF00300F4D9A1E774
:1036B0003068800140F1EA80FEF78EFB401B022853
:1036C0004FF00300F4D995E77068216920F0FE40BF
:1036D00040EA016070608FE620F00100C6F89800B3
:1036E000FEF77AFB054600BFD6F8980080077FF505
:1036F0008EAEFEF771FB401B02284FF00300F3D99A
:1037000078E700BF20F00100C6F89000D6F89000DE
:10371000002920F00400C6F890005DD0FEF75CFBA5
:10372000054641F2883700BFD6F89000800765D47F
:10373000FEF752FB401BB842F6D9032002B0BDE8A9
:10374000F08100BFF068216A00F003028A427FF432
:103750001FAF626A6FF00F0300F0F00103EB02127B
:1037600091427FF415AFA16A00F4FE42B2EB012F43
:103770007FF40EAFE16A00F07842B2EBC16F7FF4E4
:1037800007AF226B0023CFF6E07303EA025200F486
:10379000C001A2F5001291427FF4FAAE616B4FF0C6
:1037A0007E4202EA016100F0C06001F17E41884280
:1037B0007FF4EEAE71E000BFFEF70EFB054600BFE2
:1037C000306880037FF515AEFEF706FB401B6428CA
:1037D0004FF00300F4D90DE7FEF7FEFA054641F27B
:1037E000883700BFD6F89000800707D5FEF7F4FAB7
:1037F000401BB8424FF00300F4D9FBE6B8F1000FCC
:103800003FF501AEB06D20F08050B065FBE500BF24
:10381000F06848F20C01C0F29F1104F1200700EAA1
:10382000010C8ECF6FF00F00D4E90C5400EB0210A6
:103830000022CFF6E07241EA0C0102EA0552084389
:10384000A2F500124FF07E4540EA032005EA046528
:10385000104305F17E4540EAC7602843F0603068B8
:1038600040F080703060F06840F08070F060FEF7EB
:10387000B3FA0446306880010FD4FEF7ADFA001B9E
:1038800002284FF00300F5D9B4E600BFF0684FF608
:10389000FC71CFF6EE610840F060002002B0BDE898
:1038A000F0810000002804BF01207047B0B5044635
:1038B00090F8250028B9002084F82400204600F064
:1038C00059F8022084F825002168C868C00643D44E
:1038D000CA20486253204862C868400614D4C868A9
:1038E00040F08000C860FEF777FA2168CA68520687
:1038F0000AD40546FEF770FA401BB0F57A7F31D83E
:103900002168C8684006F5D588694FF6BF72CFF6C2
:103910008F3210408861D4E9010CD4E90353184375
:10392000A3698A6918431043886145EA0C4008611D
:10393000204600F0E5F8216810B1FF224A62B0BDD0
:103940008869D4E9072320F0604065691843104373
:1039500028438861FF204862012084F82500002068
:10396000B0BD00BF032084F825002168CA68FF228B
:103970004A62B0BD10B596B0044601A804304C218F
:10398000FCF7B0FC206842F60001C4F20001884256
:1039900002D016B010BD00BF4FF4002001904FF4CC
:1039A0000070159001A8FFF727FA002818BFFCF750
:1039B00021FE41F25800C4F20200816B41F4004143
:1039C0008163016841F480610160006800F48060F7
:1039D0000090009816B010BD411E0020B0EB116F92
:1039E0001CBF012070474EF21002CEF2000251605F
:1039F0004EF62351CEF20001F0230B7007219060A8
:103A0000116070472DE9F04100687F2A00F18000C5
:103A100000EBC114A04658F864EF4FF0000158F8CD
:103A20002CCC00F32D80013A3F2A00F24080DFE8E1
:103A300002F021393E213E3E3E393E3E3E3E3E3E74
:103A40003E213E3E3E3E3E3E3E3E3E3E3E3E3E3EB3
:103A50003E393E3E3E3E3E3E3E3E3E3E3E3E3E3E8B
:103A60003E3E3E3E3E3E3E3E3E3E3E3E3E3E3E3E76
:103A70003E2100BFD3E90112E1632264002116E078
:103A8000B2F5007F08DB0DD0B2F5006F0AD0B2F5B9
:103A9000806FEFD00BE000BF802A03D0B2F5807FAB
:103AA000E8D004E0D3E9011261641021A264D3E9F3
:103AB0000506D3E9034730431D683843FE222043FF
:103AC0008A4028432EEA02028840082F42EA000278
:103AD00008BF1CF0022003D0C8F80020BDE8F08128
:103AE000D86988400243C8F80020BDE8F081000092
:103AF000FEE70000FEE70000FEE700007047000060
:103B0000B0B504460068C16821F08001C1608169D8
:103B1000890640F25F01C0F2010111D4C160FEF7D5
:103B20005BF905462068C068800625D4FEF754F985
:103B3000401BB0F57A7FF5D9032084F82500B0BD8D
:103B4000826922F020028261C160FEF745F90546D4
:103B50002168C868800611D4FEF73EF9401BB0F515
:103B60007A7FF5D9032084F8250021688A6942F01C
:103B700020028A61B0BD00BF0020B0BD00208A696C
:103B800042F020028A61B0BD7047000070B5FEF7B8
:103B900023F9C00530D140F2E000C2F2000090F8F5
:103BA0005510012928D190F8541040F200450139F0
:103BB000B1FA81F14FEA51144FF00101C4F600054A
:103BC00008BF022105F5806680F8541030464FF496
:103BD00080410122FEF7FAF8284680210122FEF7F3
:103BE000F5F830464FF400412246FEF7EFF828463C
:103BF00002212246FEF7EAF8BDE87040FEF7A6BFB4
:103C000010B5A8B0002468465421CDE91F44CDE981
:103C10001D44CDE91B441994CDE91744CDE9154461
:103C2000FCF760FB0020FFF755F84FF480711D9101
:103C3000402104220A201E910121239255221A902C
:103C40001F910221CDE924201AA8CDE92111CDE947
:103C50002611FFF7BFFB68B140F20044C4F6000430
:103C600020462021FEF7AAF84FF47A70FDF724FED3
:103C7000F6E700BF0F2015900320CDE9160415A824
:103C80000821CDE91844FFF723FA68B140F2004457
:103C9000C4F6000420462021FEF790F84FF47A7015
:103CA000FDF70AFEF6E700BF4FF4082000904FF042
:103CB000805011904FF4007014906846FFF79CF804
:103CC00070B140F20044C4F6000400BF2046202139
:103CD000FEF774F84FF47A70FDF7EEFDF6E700BFDB
:103CE00028B010BD4EF68850CEF20000016841F4B5
:103CF0007001016070470000FEE700000000000056
:103D0000BAB040F2004441F24C0B42F60008C4F64F
:103D10000004C4F2020BC4F20008FEF725FFFFF70F
:103D20006FFF00251995CDE91755CDE91555DBF83D
:103D3000000004F5806A40F00400CBF80000DBF8D6
:103D400000004FF4404100F0040009900998DBF8AE
:103D50000000002240F00100CBF80000DBF800007A
:103D600000F0010009900998DBF8000040F0020023
:103D7000CBF80000DBF8000000F002000990099881
:103D80005046FEF723F85046082101220127FEF78E
:103D90001DF8204648F2A2210022FEF717F84FF046
:103DA00090404FF400410022FEF710F842F230003C
:103DB00015AE15904FF4881950463146CDE9169747
:103DC000FDF722FF4CF20800CDE9150750463146B9
:103DD000CDE91755FDF718FF48F2A200CDE9150708
:103DE00020463146CDE91755FDF70EFF40F204405D
:103DF000CDE9150920463146C1464FF400481797D2
:103E0000FDF702FF4FF090403146CDE91587CDE92F
:103E10001755FDF7F9FE4FF4406015900220CDE9EB
:103E2000160507201990504631461895FDF7ECFE0F
:103E30004FF40070CDE91507032018902046314655
:103E40001795FDF7E1FE082000210022FEF706FF8E
:103E50000820FEF7F1FE0A2000210022FEF7FEFEF8
:103E60000A20FEF7E9FE172000210022FEF7F6FEE9
:103E70001720FEF7E1FE282000210022FEF7EEFECB
:103E80002820FEF7D9FE5BF8040C002140F0040066
:103E90004BF8040C5BF8040C002200F004001590B1
:103EA00015985BF8040C40F001004BF8040C5BF82B
:103EB000040C00F00100159015980B20FEF7CEFEC3
:103EC0000B20FEF7B9FE40F28006C2F20006304633
:103ED00040F80C9F7F21FF224FF08043C0E9015141
:103EE000C0E90325C0E90555C0E90735FFF7DAFC4D
:103EF00050B100BF20462021FDF760FF4FF47A70DB
:103F0000FDF7DAFCF6E700BF40F24030C2F20000F5
:103F10004FF0A0410422C0E9001582614FF4D46142
:103F20004FF48062C0E90B124FF480510B95CDE93C
:103F30000955CDE91B55CDE91955CDE91755CDE901
:103F40001555C0E90258C0E904558583076280F819
:103F5000245080F83870C16380F84050FDF770F944
:103F600050B100BF20462021FDF728FF4FF47A70A2
:103F7000FDF7A2FCF6E700BF40F240300025C2F298
:103F8000000009A90995FCF7DFFE48B12046202171
:103F9000FDF714FF4FF47A70FDF78EFCF6E700BFD3
:103FA0001020C1F2C00015900620CDE916057F2033
:103FB000CDE9180540F20730CDE91A0540F240304E
:103FC000C2F2000015A98DF87050FCF757FF48B1F8
:103FD00020462021FDF7F2FE4FF47A70FDF76CFCCD
:103FE000F6E700BF0B20FEF711FE0DF15408002587
:103FF000404660213995CDE93755CDE93555CDE9B4
:104000003355CDE93155CDE92F55CDE92D55FCF787
:1040100069F909A824211495CDE91255FCF762F934
:1040200040F2444009F5A031C2F20000CDE9075545
:10403000CDE90555CDE90355CDE90155C0E9001598
:104040008560FEF73FF948B120462021FDF7B6FE16
:104050004FF47A70FDF730FCF6E700BF40F24440C1
:10406000C2F200000C21FEF7B7F848B1204620212B
:10407000FDF7A4FE4FF47A70FDF71EFCF6E700BFD3
:1040800040F24440C2F200000A21FEF7DDF948B1D7
:1040900020462021FDF792FE4FF47A70FDF70CFCCC
:1040A000F6E700BF4FF4403038904FF400103990DD
:1040B00040F24440C2F2000038AA0121FDF73CFF63
:1040C00050B100BF20462021FDF778FE4FF47A70F2
:1040D000FDF7F2FBF6E700BF40F24440C2F20000F9
:1040E000012100220025FDF77DFE48B12046202158
:1040F000FDF764FE4FF47A70FDF7DEFBF6E700BFD4
:1041000046F64020CDE934050820379040F244407F
:10411000C2F2000034AA02213695FEF7D3F948B165
:1041200020462021FDF74AFE4FF47A70FDF7C4FBCC
:10413000F6E700BF40F244400025C2F200002DAA7D
:1041400002213395CDE92D55CDE92F55FEF7A2FC7F
:1041500040B120462021FDF731FE4FF47A70FDF783
:10416000ABFBF6E70120199008F114003021CDE9EE
:104170001755CDE91555FCF7B5F84FF48070CDE92A
:10418000260540F24440C2F2000002214246CDE939
:104190002955CDE92B55FEF7FDFA48B120462021DF
:1041A000FDF70CFE4FF47A70FDF786FBF6E700BFD3
:1041B00040F244400025C2F2000012AB022101226D
:1041C0001295FEF7B9F948B120462021FDF7F6FD1A
:1041D0004FF47A70FDF770FBF6E700BF45F6A0706C
:1041E000CDE9120540F24440C2F2000012AB0221B8
:1041F00002221495FEF7A0F940B120462021FDF7D8
:10420000DDFD4FF47A70FDF757FBF6E73220129090
:1042100040F24440C2F2000012AB02210422FEF739
:104220008BF948B120462021FDF7C8FD4FF47A7084
:10423000FDF742FBF6E700BF00254B20CDE90A055C
:104240004FF49670CDE90E0540F24440C2F20000F2
:1042500009AA02210995CDE90C55CDE91055FDF7C4
:10426000E5FF48B120462021FDF7A8FD4FF47A7004
:10427000FDF722FBF6E700BF042002901820CDE9ED
:1042800003052020CDE9060540F24440C2F20000BB
:1042900001AB02211022019505950895FEF746FA1B
:1042A00040B120462021FDF789FD4FF47A70FDF7DB
:1042B00003FBF6E70020CDE9020040F24440C2F2E1
:1042C000000001AB02212022FEF730FA40B1204667
:1042D0002021FDF773FD4FF47A70FDF7EDFAF6E754
:1042E00040F24449C2F200094846FEF77BF840F22A
:1042F0000C400BF56D71C2F200000160FDF782FB0E
:1043000040B120462021FDF759FD4FF47A70FDF7AA
:10431000D3FAF6E740F2000340F20750314640F28C
:104320000072C2F2000321F8340F0020C0F20C52D8
:104330009F1CC1E90102C1E9030703F1080088617C
:1043400004204FF4407208774FF01060A1F81D2050
:104350004FF40042C1E908204FF441700885052060
:1043600081F82A0040F20C400325C2F200000D75CE
:10437000FDF7B8FA40B120462021FDF71FFD4FF4AC
:104380007A70FDF799FAF6E740F20C40331DC2F25D
:104390000000002105220095FDF7AAFA40B1204651
:1043A0002021FDF70BFD4FF47A70FDF785FAF6E753
:1043B00040F20C48C2F2000840F20002B11CC2F206
:1043C00000024046FDF7A2FA40B120462021FDF749
:1043D000F5FC4FF47A70FDF76FFAF6E740F24030E3
:1043E000C2F200007F21FCF745FC48B120462021A5
:1043F000FDF7E4FC4FF47A70FDF75EFAF6E700BFD4
:10440000D8F80000012200F1180140F24030C2F259
:104410000000FDF7BBF848B120462021FDF7CEFC97
:104420004FF47A70FDF748FAF6E700BFD9F800506C
:1044300044F64431D5F88001C0F6000100F00700D1
:1044400051F8200000F0F8FA9FED330B53EC102BDD
:1044500000F0F4F99FED320B53EC102B00F064F8F0
:1044600000F0BEF94FF6FF71884238BF014601EBFC
:10447000810045F629420001C0F28F22A0FB020212
:1044800040F2E000C2F20000C164C5F89411484651
:104490003021C5F89C21FEF767F948464FF400210A
:1044A000FEF730F920464FF400410122FDF78EFC63
:1044B00040F23810C2F20000022180F80612308863
:1044C000F8B14FF090404FF400410122FDF77EFC1F
:1044D00050464FF48041FDF771FC50464FF40041C7
:1044E000FDF76CFC20468021FDF768FC2046022188
:1044F000FDF764FC4FF4FA70FDF7DEF93088002810
:10450000DFD14FF090404FF400410022FDF75EFCF8
:1045100030880028D5D1F4E700000000FD43A44115
:1045200000000000006A08412DE9C04130B4DFF806
:10453000A8C23CEA111418BF3CEA131400F0F08042
:104540001CEA111481EA030544EAD57418BF1CEA79
:10455000131500F0CB80A4EB050404F17F7404F57F
:1045600000344FF0004545EAC12145EAC32341EA42
:10457000505143EA52534FEAC0204FEAC2229942B7
:1045800008BF904200F0A0804FEA13650FF2481672
:10459000765D4FEA134506FB05F7C7F1807706FB0A
:1045A00007F74FEAD737A7FB03687642A7FB06CE8B
:1045B000C8F5803838BFA8F1010807FB08E6A6FB5C
:1045C000028C4FF0000EE6FB03CED8F100086FEA34
:1045D0000C0C5CF1000C6FEA0E0E4EF1004EA6FBC7
:1045E0000C584FF00007E6FB0E87A1FB08C6A0FBA6
:1045F00007CE16EB0E064FF0000545F10005E1FB76
:10460000076515F1E04E7EBFA4F580345FEA4606EB
:104610006D4116F1800745F100054FEA172747EA7B
:1046200005674FEA15254FEA0666A6F1DE46B6F1A4
:10463000805F20D9384605EBC47124F0010C01EBF2
:104640000C11BCF1FE6F02D8F0BCBDE80081244221
:104650005CBF01F5801E9EEAC47F02D4F0BCBDE8B9
:104660000081244200F13980A1F1C041F0BCBDE8D5
:10467000004100F0DBB94FEAD02040EA41504FEA58
:10468000D1214FEAD22242EA43524FEAD323A7FB79
:10469000028607FB036605FB02661EEA0E0F58BF83
:1046A000A6EB0056B6EB00564FEA520E4EEAC37E1A
:1046B00018EB0E0E56EB530EBCD518EB02085E41FC
:1046C0007F1C55F10005B5E74FF480154FF000074A
:1046D0004FF000064FF00008ACE701F1C04101F0D7
:1046E00000414FF00000F0BCBDE800810CEA13155A
:1046F00011EA0C1F00D00CE013EA0C1F00F025801B
:104700004FF0000081EA030101F00041F0BCBDE878
:104710000081F0BCBDE8004181EA030100F086B9E8
:10472000F0BCBDE8004170B500F032F9097EFC3EF6
:1047300000F007B84FF0000081EA030101F00041EA
:10474000704781EA030100F071B9F0BCBDE8004197
:1047500022494FF000007047FFFDFBF9F7F5F4F236
:10476000F0EEEDEBE9E8E6E4E3E1E0DEDDDBDAD80C
:10477000D7D5D4D3D1D0CFCDCCCBCAC8C7C6C5C46A
:10478000C2C1C0BFBEBDBCBBBAB9B8B7B6B5B4B381
:10479000B2B1B0AFAEADACABAAA9A8A8A7A6A5A46C
:1047A000A3A3A2A1A09F9F9E9D9C9C9B9A99999830
:1047B0009797969595949393929191908F8F8E8ED3
:1047C0008D8C8C8B8B8A8989888887878685858460
:1047D00084838382828181800000FF070000F87F4C
:1047E0004FEA1153A3F58063D3F11E03A8BFD3F1A1
:1047F000200C08DB4FF0004242EAC12252EA50523C
:1048000032FA03F0704709420BD4102BC4BF0020CA
:10481000704703F5787CBCF1FF3F05D04FF0FF30C7
:1048200070474FF00000704770B500F0B1F800BF5E
:104830004992248000207047F0E7000070B5DFF84F
:1048400048C11CEA111E1EBF1CEA13159EEA0C0F7C
:1048500095EA0C0F00F06F8081EA03044EEAD47EE3
:10486000AE4421EA4C1123EA4C1341F4801143F485
:104870008013AEF17F7EA1FB024CA0FB03653619CD
:1048800055EB0C05A1FB034C4CF10003A0FB021CF3
:1048900016EB0C06654153F10003094218BF46F0C0
:1048A000010613F4007F0BD14FEA03314FEA0530C4
:1048B00041EA155140EA165034036FF003020AE052
:1048C0004FEAC3214FEAC52041EA555140EA56500C
:1048D000F4026FF0020202EB2E4201EB025585EA70
:1048E000CE710AD05FEA440C18BF24F0004450F1A6
:1048F000000041F1000120EAD47040F2FE7C6245E4
:1049000000D270BDA84214BF4FF080444FF0404425
:10491000002E08BF0024BEF1806FA8BFA1F1C041E6
:10492000BDE8704080F2828001F1C04101F0004199
:104930004FF0000070470CEA13159EEA0C0F18BFE9
:1049400095EA0C0F06D081EA030E4FF000000EF03E
:10495000004170BD00F01CF88900013E00F007B86E
:1049600000F009B84FEA430C5FEA5C5C08D081EACA
:10497000030100F05BB84FEA410C5FEA5C5CF6D1E2
:1049800002494FF0000070470000FF070000F87F69
:104990000EF1020E2EF0030E5EF8046B364205D4C3
:1049A000012A43EB030515F5001F12D8012841EB3E
:1049B000010C1CF5001F0CD80ED14FEAD17C0CEB7A
:1049C0004C0C0CF1020C15F5001F08BF4CEBD37C0E
:1049D00004E04FF0080C01E04FEAD37C0CEB4C05EF
:1049E00026FA05F606F00706B6F1040C06D20EEB21
:1049F000860CBDE870404CF0010C6047DFE80CF01D
:104A0000090B02024FF00041A1F500214FF0000018
:104A100070BD19461046012851EB010418BFD4F5AA
:104A2000001484BF002001F0004170BD0808A0F50B
:104A300000114FEA3101704743004FEAD30C4FEAAF
:104A40003C0C43401FBF40070CF1605113F0FE4F78
:104A500070471CF0006F03D10CF00041002070473C
:104A60000CF0004343EA507040EACC0010B500F06F
:104A70000EF800BF000000924FEA0001FFF7D6BF1A
:104A80004FF00041A1F500214FF0000070470EF1FA
:104A9000020E2EF0030E5EF8044B244204D44FEABB
:104AA0004102B2F17F4F11D84FEA4003B3F17F4F7B
:104AB0000CD80ED14FEAD07C0CEB4C0C0CF1020C54
:104AC000B2F17F4F08BF4CEBD17C04E04FF0080CF3
:104AD00001E04FEAD17C0CEB4C0324FA03F404F020
:104AE0000704B4F1040C06D20EEB840CBDE81040B0
:104AF0004CF0010C6047DFE80CF0070802024FF0B1
:104B00000040A0F5800010BD0846420018BFD2F159
:104B1000807288BF00F0004010BDF1EE100A4FF621
:104B2000FF71C0F2C03120EA010040F04070E1EEB8
:104B3000100A70470000000000000000010203049A
:104B40000607080900000042000080410000004103
:104B500000008040000000400000803F0000003F57
:104B60000000803E884B000800000020200000006C
:104B70003C020008A84B000820000020280B000081
:104B80005C020008000000000100160693FE57FFBB
:104B9000DFAA9C4ACF5412B51000000001000000AB
:084BA0000024F40000000000F5
:04000005080001D915
:00000001FF
